:1044000055425C0135D0085A82451624314000449B
:104410003F4002000F930824924216245C012F8330
:104420009F4F52480024F8233F4014000F93072465
:10443000924216245C011F83CF430224F923B01259
:10444000F845B01262443B400000B0126E440B933A
:10445000FC27B0120000F93F32D0F000FD3F3040A1
:10446000AA475E437F402B00B012FE463041829344
:10447000002405209292022404240D2030411F4282
:1044800004241F533FF0018004343F533FD0FEFF0C
:104490001F53824F04241E420424824E02244E4E97
:1044A0007F402B00B0126C473E40E8030F43B01230
:1044B00050463041F2D030004A02F2D00C004402A3
:1044C000B2F0FEFF6C01B2D00C006C012D42B2F0D4
:1044D000F4FF6E01B2F0FDFF02013E4040003F409C
:1044E000C9931F83FE231E83FC2303433D530324F0
:1044F000A2B30201EC23B2F03FFF6C013041B240A5
:104500001D5A5C0192D300013041F240A5FF210108
:10451000B2F0F8FF2601C2432001B2F0F8FF2C01EF
:104520001F4226013FF0F8FF1FD3824F260192B3AE
:104530002C01FD27A2B32C01FD275F4220017FF053
:10454000FCFF5FD3C24F2001A2B22C01FD27B2F0C5
:10455000F8FF2C011F4226013FF0F8FF2FD3824FB6
:10456000260192B32C01FD27A2B32C01FD275F4247
:1045700020017FF0FCFF6FD3C24F2001A2B22C01BB
:10458000FD27B2F0F8FF2C011F4226013FF0F8FF93
:104590003FD00300824F260192B32C01FD27A2B326
:1045A0002C01FD27F2D003002001A2B22C01FD272F
:1045B000B2F0FFBB2401B2F0FFBB2601C2432101D0
:1045C00082436001B24060006201B2407611640132
:1045D000B24020006601B24033006801B2F0F8FF3B
:1045E0006E01F240A5FF2101B2F0FEFF3001C2438F
:1045F0002101B012B4443041B240805A5C01B01283
:104600000A45B012FE44B24028960009B2F0FFE716
:104610000809B2400096000932D230410D4232C240
:1046200003431E420E241F421024024D021232C2C6
:104630000343824ED404824FD604B2404701E004C3
:104640008243E2041E42CA041F42CC04324130417C
:104650003B15084E094FB0121C460A4E0B4F103C3A
:10466000B0121C460E8A0F7B0F9303203E90E80386
:104670000528385339633A50E8030B6332D01800E9
:104680000893EE230993EC23381730414F151E424F
:104690000A241F420C241B4208245D4206244D9329
:1046A00004241C4212240D43023C0C430D430E5CB7
:1046B0000F6D5D4206244D9303241D421424023CD9
:1046C0003D4047010D5B3D90E80304283D5018FC38
:1046D0001E530F63824D0824824E0A24824F0C24FD
:1046E0001E420E241F4210241E530F63824E0E24BE
:1046F000824F1024B1C0D0000A004B1700131B15C5
:104700004F4F5A4FAC475D4FDB474D932D244D4DD6
:104710005D021C4D0A486F4C4B4A7BE34FFBCC4F6C
:1047200000001F4D2E481C4D1C481D4D40484E9307
:104730000520CFFB00006F4C4FFB113C6E93052012
:10474000CFFB00006F4D4FDA063C6E920B20CFFB83
:1047500000006F4D4FFBCD4F00006F4C4FDACC4F38
:104760000000023CCFDA00001A1730411B154F4FF2
:104770005C4FAC475F4FDB474F9315244F4F5F02B1
:104780001A4F0A486D4A4B4C7BE34DFBCA4D000063
:104790001F4F40484E9303206E4F4EFB023C6E4F1E
:0C47A0004EDCCF4E00001A173041001311
:1047AC00000020100840400480040202084002016E
:1047BC000010040100000001020408100140200454
:1047CC008001080408102010200202018020100033
:1047DC00000603030106030204040802020303009B
:1047EC00070202000000060606060607030308037C
:1047FC00040401010101020202010104040400008D
:10480C000A020B022A022B024A024B026A026B02B8
:10481C000000060207022602270246024702660231
:10482C00670200000402050224022502440245022C
:10483C006402650200000202030222022302420209
:06484C0043026202630258
:02485200010063
:10FF8000FFFFFFFFFFFFFFFFFFFFFFFFFFFFFFFF81
:10FF9000FFFFFFFFFFFFFFFFFFFFFFFFFFFFFFFF71
:10FFA0005E445E445E445E445E445E445E445E4441
:10FFB0005E445E445E445E445E445E445E445E4431
:10FFC0005E445E445E445E445E445E445E445E4421
:10FFD0005E445E445E445E445E445E445E445E4411
:10FFE0005E445E445E445E445E445E445E445E4401
:10FFF0005E448C465E445E445E445E445E4400441F
:0400000300004400B5
:00000001FF
